{
  "contractName": "TeamUp",
  "abi": [
    {
      "constant": true,
      "inputs": [
        {
          "name": "",
          "type": "uint256"
        }
      ],
      "name": "IdeaCodes",
      "outputs": [
        {
          "name": "",
          "type": "bytes32"
        }
      ],
      "payable": false,
      "stateMutability": "view",
      "type": "function"
    },
    {
      "constant": true,
      "inputs": [
        {
          "name": "",
          "type": "uint256"
        }
      ],
      "name": "Votes",
      "outputs": [
        {
          "name": "hackathonName",
          "type": "string"
        },
        {
          "name": "hacker",
          "type": "address"
        },
        {
          "name": "ideaId",
          "type": "bytes32"
        },
        {
          "name": "role",
          "type": "uint8"
        },
        {
          "name": "priority",
          "type": "uint8"
        }
      ],
      "payable": false,
      "stateMutability": "view",
      "type": "function"
    },
    {
      "constant": true,
      "inputs": [
        {
          "name": "",
          "type": "address"
        },
        {
          "name": "",
          "type": "uint256"
        }
      ],
      "name": "HackerVotes",
      "outputs": [
        {
          "name": "hackathonName",
          "type": "string"
        },
        {
          "name": "hacker",
          "type": "address"
        },
        {
          "name": "ideaId",
          "type": "bytes32"
        },
        {
          "name": "role",
          "type": "uint8"
        },
        {
          "name": "priority",
          "type": "uint8"
        }
      ],
      "payable": false,
      "stateMutability": "view",
      "type": "function"
    },
    {
      "constant": true,
      "inputs": [
        {
          "name": "",
          "type": "bytes32"
        },
        {
          "name": "",
          "type": "uint256"
        }
      ],
      "name": "IdeaVotes",
      "outputs": [
        {
          "name": "hackathonName",
          "type": "string"
        },
        {
          "name": "hacker",
          "type": "address"
        },
        {
          "name": "ideaId",
          "type": "bytes32"
        },
        {
          "name": "role",
          "type": "uint8"
        },
        {
          "name": "priority",
          "type": "uint8"
        }
      ],
      "payable": false,
      "stateMutability": "view",
      "type": "function"
    },
    {
      "constant": true,
      "inputs": [
        {
          "name": "",
          "type": "bytes32"
        }
      ],
      "name": "Teams",
      "outputs": [
        {
          "name": "hackathonName",
          "type": "string"
        },
        {
          "name": "ideaId",
          "type": "bytes32"
        },
        {
          "name": "leader",
          "type": "address"
        },
        {
          "name": "designer",
          "type": "address"
        },
        {
          "name": "frontend_dev",
          "type": "address"
        },
        {
          "name": "backend_dev",
          "type": "address"
        },
        {
          "name": "partipants_votes",
          "type": "uint256"
        },
        {
          "name": "isOfficial",
          "type": "bool"
        }
      ],
      "payable": false,
      "stateMutability": "view",
      "type": "function"
    },
    {
      "constant": true,
      "inputs": [
        {
          "name": "",
          "type": "bytes32"
        }
      ],
      "name": "Ideas",
      "outputs": [
        {
          "name": "ideaId",
          "type": "bytes32"
        },
        {
          "name": "leader",
          "type": "address"
        },
        {
          "name": "industry",
          "type": "string"
        },
        {
          "name": "tagline",
          "type": "string"
        },
        {
          "name": "isIdea",
          "type": "bool"
        }
      ],
      "payable": false,
      "stateMutability": "view",
      "type": "function"
    },
    {
      "anonymous": false,
      "inputs": [
        {
          "indexed": false,
          "name": "ideaId",
          "type": "bytes32"
        },
        {
          "indexed": false,
          "name": "leader",
          "type": "address"
        }
      ],
      "name": "IdeaPosted",
      "type": "event"
    },
    {
      "anonymous": false,
      "inputs": [
        {
          "indexed": false,
          "name": "hacker",
          "type": "address"
        },
        {
          "indexed": false,
          "name": "ideaId",
          "type": "bytes32"
        },
        {
          "indexed": false,
          "name": "role",
          "type": "uint8"
        },
        {
          "indexed": false,
          "name": "priority",
          "type": "uint256"
        },
        {
          "indexed": false,
          "name": "message",
          "type": "string"
        }
      ],
      "name": "HackerVoteUpdated",
      "type": "event"
    },
    {
      "anonymous": false,
      "inputs": [
        {
          "indexed": false,
          "name": "ideaId",
          "type": "bytes32"
        },
        {
          "indexed": false,
          "name": "role",
          "type": "uint8"
        },
        {
          "indexed": false,
          "name": "hackerAddress",
          "type": "address"
        }
      ],
      "name": "HackerPicked",
      "type": "event"
    },
    {
      "anonymous": false,
      "inputs": [
        {
          "indexed": false,
          "name": "ideaId",
          "type": "bytes32"
        }
      ],
      "name": "TeamFormed",
      "type": "event"
    },
    {
      "constant": true,
      "inputs": [
        {
          "name": "ideaId",
          "type": "bytes32"
        }
      ],
      "name": "getIdeaTeam",
      "outputs": [
        {
          "name": "",
          "type": "address"
        },
        {
          "name": "",
          "type": "address"
        },
        {
          "name": "",
          "type": "address"
        },
        {
          "name": "",
          "type": "address"
        },
        {
          "name": "",
          "type": "uint256"
        },
        {
          "name": "",
          "type": "bool"
        }
      ],
      "payable": false,
      "stateMutability": "view",
      "type": "function"
    },
    {
      "constant": true,
      "inputs": [],
      "name": "getVotesLength",
      "outputs": [
        {
          "name": "",
          "type": "uint256"
        }
      ],
      "payable": false,
      "stateMutability": "view",
      "type": "function"
    },
    {
      "constant": true,
      "inputs": [
        {
          "name": "ideaId",
          "type": "bytes32"
        }
      ],
      "name": "getIdeaVotesCount",
      "outputs": [
        {
          "name": "",
          "type": "uint256"
        }
      ],
      "payable": false,
      "stateMutability": "view",
      "type": "function"
    },
    {
      "constant": true,
      "inputs": [],
      "name": "getIdeaCodes",
      "outputs": [
        {
          "name": "",
          "type": "bytes32[]"
        }
      ],
      "payable": false,
      "stateMutability": "view",
      "type": "function"
    },
    {
      "constant": true,
      "inputs": [],
      "name": "getIdeasLength",
      "outputs": [
        {
          "name": "",
          "type": "uint256"
        }
      ],
      "payable": false,
      "stateMutability": "view",
      "type": "function"
    },
    {
      "constant": true,
      "inputs": [
        {
          "name": "ideaId",
          "type": "bytes32"
        }
      ],
      "name": "hasIdeaPosted",
      "outputs": [
        {
          "name": "",
          "type": "bool"
        }
      ],
      "payable": false,
      "stateMutability": "view",
      "type": "function"
    },
    {
      "constant": false,
      "inputs": [
        {
          "name": "industry",
          "type": "string"
        },
        {
          "name": "tagline",
          "type": "string"
        }
      ],
      "name": "postIdea",
      "outputs": [
        {
          "name": "",
          "type": "bytes32"
        }
      ],
      "payable": false,
      "stateMutability": "nonpayable",
      "type": "function"
    },
    {
      "constant": false,
      "inputs": [
        {
          "name": "ideaId",
          "type": "bytes32"
        },
        {
          "name": "role",
          "type": "uint8"
        },
        {
          "name": "priority",
          "type": "uint256"
        }
      ],
      "name": "hackerToVote",
      "outputs": [],
      "payable": false,
      "stateMutability": "nonpayable",
      "type": "function"
    },
    {
      "constant": false,
      "inputs": [
        {
          "name": "ideaId",
          "type": "bytes32"
        },
        {
          "name": "role",
          "type": "uint8"
        },
        {
          "name": "hackerAddress",
          "type": "address"
        }
      ],
      "name": "leaderToPick",
      "outputs": [],
      "payable": false,
      "stateMutability": "nonpayable",
      "type": "function"
    },
    {
      "constant": false,
      "inputs": [
        {
          "name": "ideaId",
          "type": "bytes32"
        }
      ],
      "name": "forceToFinalize",
      "outputs": [],
      "payable": false,
      "stateMutability": "nonpayable",
      "type": "function"
    }
  ],
  "bytecode": "0x608060405234801561001057600080fd5b50612788806100206000396000f3006080604052600436106100e6576000357c0100000000000000000000000000000000000000000000000000000000900463ffffffff1680630d4f56f1146100eb5780631fcf5c8e14610133578063267e65291461019f5780633d6e1a44146101ca5780637e3fced4146102135780638f3d73c014610282578063ac2987ff146102e0578063ad4b484e146103e2578063b361872414610504578063b6455e3014610614578063bd52966414610730578063bf52213914610761578063c19ae72a146107a6578063c684477d146107ef578063dd3373831461081a578063e2f7a1f6146109b1575b600080fd5b3480156100f757600080fd5b506101316004803603810190808035600019169060200190929190803560ff16906020019092919080359060200190929190505050610b14565b005b34801561013f57600080fd5b50610148611337565b6040518080602001828103825283818151815260200191508051906020019060200280838360005b8381101561018b578082015181840152602081019050610170565b505050509050019250505060405180910390f35b3480156101ab57600080fd5b506101b4611393565b6040518082815260200191505060405180910390f35b3480156101d657600080fd5b506101f5600480360381019080803590602001909291905050506113a0565b60405180826000191660001916815260200191505060405180910390f35b34801561021f57600080fd5b506102646004803603810190808035906020019082018035906020019190919293919293908035906020019082018035906020019190919293919293905050506113c3565b60405180826000191660001916815260200191505060405180910390f35b34801561028e57600080fd5b506102de6004803603810190808035600019169060200190929190803560ff169060200190929190803573ffffffffffffffffffffffffffffffffffffffff169060200190929190505050611929565b005b3480156102ec57600080fd5b5061030b60048036038101908080359060200190929190505050611ca6565b60405180806020018673ffffffffffffffffffffffffffffffffffffffff1673ffffffffffffffffffffffffffffffffffffffff16815260200185600019166000191681526020018460ff1660ff1681526020018360ff1660ff168152602001828103825287818151815260200191508051906020019080838360005b838110156103a3578082015181840152602081019050610388565b50505050905090810190601f1680156103d05780820380516001836020036101000a031916815260200191505b50965050505050505060405180910390f35b3480156103ee57600080fd5b5061042d600480360381019080803573ffffffffffffffffffffffffffffffffffffffff16906020019092919080359060200190929190505050611dbd565b60405180806020018673ffffffffffffffffffffffffffffffffffffffff1673ffffffffffffffffffffffffffffffffffffffff16815260200185600019166000191681526020018460ff1660ff1681526020018360ff1660ff168152602001828103825287818151815260200191508051906020019080838360005b838110156104c55780820151818401526020810190506104aa565b50505050905090810190601f1680156104f25780820380516001836020036101000a031916815260200191505b50965050505050505060405180910390f35b34801561051057600080fd5b5061053d600480360381019080803560001916906020019092919080359060200190929190505050611ed7565b60405180806020018673ffffffffffffffffffffffffffffffffffffffff1673ffffffffffffffffffffffffffffffffffffffff16815260200185600019166000191681526020018460ff1660ff1681526020018360ff1660ff168152602001828103825287818151815260200191508051906020019080838360005b838110156105d55780820151818401526020810190506105ba565b50505050905090810190601f1680156106025780820380516001836020036101000a031916815260200191505b50965050505050505060405180910390f35b34801561062057600080fd5b506106436004803603810190808035600019169060200190929190505050611ffb565b604051808773ffffffffffffffffffffffffffffffffffffffff1673ffffffffffffffffffffffffffffffffffffffff1681526020018673ffffffffffffffffffffffffffffffffffffffff1673ffffffffffffffffffffffffffffffffffffffff1681526020018573ffffffffffffffffffffffffffffffffffffffff1673ffffffffffffffffffffffffffffffffffffffff1681526020018473ffffffffffffffffffffffffffffffffffffffff1673ffffffffffffffffffffffffffffffffffffffff16815260200183815260200182151515158152602001965050505050505060405180910390f35b34801561073c57600080fd5b5061075f60048036038101908080356000191690602001909291905050506120e4565b005b34801561076d57600080fd5b5061079060048036038101908080356000191690602001909291905050506121e7565b6040518082815260200191505060405180910390f35b3480156107b257600080fd5b506107d5600480360381019080803560001916906020019092919050505061220f565b604051808215151515815260200191505060405180910390f35b3480156107fb57600080fd5b5061080461226e565b6040518082815260200191505060405180910390f35b34801561082657600080fd5b50610849600480360381019080803560001916906020019092919050505061227a565b604051808060200189600019166000191681526020018873ffffffffffffffffffffffffffffffffffffffff1673ffffffffffffffffffffffffffffffffffffffff1681526020018773ffffffffffffffffffffffffffffffffffffffff1673ffffffffffffffffffffffffffffffffffffffff1681526020018673ffffffffffffffffffffffffffffffffffffffff1673ffffffffffffffffffffffffffffffffffffffff1681526020018573ffffffffffffffffffffffffffffffffffffffff1673ffffffffffffffffffffffffffffffffffffffff1681526020018481526020018315151515815260200182810382528a818151815260200191508051906020019080838360005b8381101561096f578082015181840152602081019050610954565b50505050905090810190601f16801561099c5780820380516001836020036101000a031916815260200191505b50995050505050505050505060405180910390f35b3480156109bd57600080fd5b506109e060048036038101908080356000191690602001909291905050506123e7565b6040518086600019166000191681526020018573ffffffffffffffffffffffffffffffffffffffff1673ffffffffffffffffffffffffffffffffffffffff168152602001806020018060200184151515158152602001838103835286818151815260200191508051906020019080838360005b83811015610a6e578082015181840152602081019050610a53565b50505050905090810190601f168015610a9b5780820380516001836020036101000a031916815260200191505b50838103825285818151815260200191508051906020019080838360005b83811015610ad4578082015181840152602081019050610ab9565b50505050905090810190601f168015610b015780820380516001836020036101000a031916815260200191505b5097505050505050505060405180910390f35b600080610b1f61257a565b600160ff168560ff1614151515610b3557600080fd5b60018410158015610b47575060038411155b1515610b5257600080fd5b6002600087600019166000191681526020019081526020016000209250600660003373ffffffffffffffffffffffffffffffffffffffff1673ffffffffffffffffffffffffffffffffffffffff16815260200190815260200160002060018503600381101515610bbe57fe5b60040201915060008260030160019054906101000a900460ff1660ff16141561102f5760a0604051908101604052806040805190810160405280600581526020017f455448534600000000000000000000000000000000000000000000000000000081525081526020013373ffffffffffffffffffffffffffffffffffffffff168152602001876000191681526020018660ff1681526020018560ff168152509050600481908060018154018082558091505090600182039060005260206000209060040201600090919290919091506000820151816000019080519060200190610caa9291906125c9565b5060208201518160010160006101000a81548173ffffffffffffffffffffffffffffffffffffffff021916908373ffffffffffffffffffffffffffffffffffffffff1602179055506040820151816002019060001916905560608201518160030160006101000a81548160ff021916908360ff16021790555060808201518160030160016101000a81548160ff021916908360ff16021790555050505060056000876000191660001916815260200190815260200160002081908060018154018082558091505090600182039060005260206000209060040201600090919290919091506000820151816000019080519060200190610daa9291906125c9565b5060208201518160010160006101000a81548173ffffffffffffffffffffffffffffffffffffffff021916908373ffffffffffffffffffffffffffffffffffffffff1602179055506040820151816002019060001916905560608201518160030160006101000a81548160ff021916908360ff16021790555060808201518160030160016101000a81548160ff021916908360ff16021790555050505080600660003373ffffffffffffffffffffffffffffffffffffffff1673ffffffffffffffffffffffffffffffffffffffff16815260200190815260200160002060018603600381101515610e9757fe5b600402016000820151816000019080519060200190610eb79291906125c9565b5060208201518160010160006101000a81548173ffffffffffffffffffffffffffffffffffffffff021916908373ffffffffffffffffffffffffffffffffffffffff1602179055506040820151816002019060001916905560608201518160030160006101000a81548160ff021916908360ff16021790555060808201518160030160016101000a81548160ff021916908360ff16021790555090505082600601600081548092919060010191905055507f9d3edd893c2b09c7350c9849b0e6fe1fe53269adb71b019ad9bf73e05bde9b8833878787604051808573ffffffffffffffffffffffffffffffffffffffff1673ffffffffffffffffffffffffffffffffffffffff16815260200184600019166000191681526020018360ff1660ff16815260200182815260200180602001828103825260138152602001807f6e657720766f74652069732061646465642e20000000000000000000000000008152506020019550505050505060405180910390a161132f565b856000191682600201546000191614151561112c578582600201816000191690555082600601600081548092919060010191905055507f9d3edd893c2b09c7350c9849b0e6fe1fe53269adb71b019ad9bf73e05bde9b8833878787604051808573ffffffffffffffffffffffffffffffffffffffff1673ffffffffffffffffffffffffffffffffffffffff16815260200184600019166000191681526020018360ff1660ff168152602001828152602001806020018281038252601e8152602001807f766f74696e67206f6e20646966666572656e742069646561206e6f772e2000008152506020019550505050505060405180910390a161132e565b8460ff168260030160009054906101000a900460ff1660ff1614151561126a57848260030160006101000a81548160ff021916908360ff16021790555082600601600081548092919060010191905055507f9d3edd893c2b09c7350c9849b0e6fe1fe53269adb71b019ad9bf73e05bde9b8833878787604051808573ffffffffffffffffffffffffffffffffffffffff1673ffffffffffffffffffffffffffffffffffffffff16815260200184600019166000191681526020018360ff1660ff16815260200182815260200180602001828103825260238152602001807f726f6c65206973206368616e67656420666f7220746865207361656d20766f7481526020017f652e2000000000000000000000000000000000000000000000000000000000008152506040019550505050505060405180910390a161132d565b7f9d3edd893c2b09c7350c9849b0e6fe1fe53269adb71b019ad9bf73e05bde9b8833878787604051808573ffffffffffffffffffffffffffffffffffffffff1673ffffffffffffffffffffffffffffffffffffffff16815260200184600019166000191681526020018360ff1660ff16815260200182815260200180602001828103825260148152602001807f6e6f20766f746520697320757064617465642e200000000000000000000000008152506020019550505050505060405180910390a15b5b5b505050505050565b6060600080548060200260200160405190810160405280929190818152602001828054801561138957602002820191906000526020600020905b81546000191681526020019060010190808311611371575b5050505050905090565b6000600480549050905090565b6000818154811015156113af57fe5b906000526020600020016000915090505481565b60008060006113d0612649565b6113d8612694565b8888888860405160200180858580828437820191505083838082843782019150509450505050506040516020818303038152906040526040518082805190602001908083835b602083101515611443578051825260208201915060208101905060208303925061141e565b6001836020036101000a0380198251168184511680821785525050505050509050019150506040518091039020935061147b8461220f565b92506001151583151514156114925783945061191d565b60a060405190810160405280856000191681526020013373ffffffffffffffffffffffffffffffffffffffff1681526020018a8a8080601f016020809104026020016040519081016040528093929190818152602001838380828437820191505050505050815260200188888080601f01602080910402602001604051908101604052809392919081815260200183838082843782019150505050505081526020016000151581525091506000849080600181540180825580915050906001820390600052602060002001600090919290919091509060001916905550816001600086600019166000191681526020019081526020016000206000820151816000019060001916905560208201518160010160006101000a81548173ffffffffffffffffffffffffffffffffffffffff021916908373ffffffffffffffffffffffffffffffffffffffff16021790555060408201518160020190805190602001906115fe9291906125c9565b50606082015181600301908051906020019061161b9291906125c9565b5060808201518160040160006101000a81548160ff021916908315150217905550905050610100604051908101604052806040805190810160405280600581526020017f45544853460000000000000000000000000000000000000000000000000000008152508152602001856000191681526020013373ffffffffffffffffffffffffffffffffffffffff168152602001600073ffffffffffffffffffffffffffffffffffffffff168152602001600073ffffffffffffffffffffffffffffffffffffffff168152602001600073ffffffffffffffffffffffffffffffffffffffff1681526020016000815260200160001515815250905080600260008660001916600019168152602001908152602001600020600082015181600001908051906020019061174c9291906125c9565b506020820151816001019060001916905560408201518160020160006101000a81548173ffffffffffffffffffffffffffffffffffffffff021916908373ffffffffffffffffffffffffffffffffffffffff16021790555060608201518160030160006101000a81548173ffffffffffffffffffffffffffffffffffffffff021916908373ffffffffffffffffffffffffffffffffffffffff16021790555060808201518160040160006101000a81548173ffffffffffffffffffffffffffffffffffffffff021916908373ffffffffffffffffffffffffffffffffffffffff16021790555060a08201518160050160006101000a81548173ffffffffffffffffffffffffffffffffffffffff021916908373ffffffffffffffffffffffffffffffffffffffff16021790555060c0820151816006015560e08201518160070160006101000a81548160ff0219169083151502179055509050507ff841007549b2ff155c0b225a45f878bef5435f8efc7a91dbba8cdfba6ab467c484336040518083600019166000191681526020018273ffffffffffffffffffffffffffffffffffffffff1673ffffffffffffffffffffffffffffffffffffffff1681526020019250505060405180910390a18394505b50505050949350505050565b60008060026000866000191660001916815260200190815260200160002091508160020160009054906101000a900473ffffffffffffffffffffffffffffffffffffffff1690503373ffffffffffffffffffffffffffffffffffffffff168173ffffffffffffffffffffffffffffffffffffffff161415156119aa57600080fd5b600260ff168460ff161415611a0157828260030160006101000a81548173ffffffffffffffffffffffffffffffffffffffff021916908373ffffffffffffffffffffffffffffffffffffffff160217905550611aad565b600360ff168460ff161415611a5857828260040160006101000a81548173ffffffffffffffffffffffffffffffffffffffff021916908373ffffffffffffffffffffffffffffffffffffffff160217905550611aac565b600460ff168460ff161415611aab57828260050160006101000a81548173ffffffffffffffffffffffffffffffffffffffff021916908373ffffffffffffffffffffffffffffffffffffffff1602179055505b5b5b7f4874534f8487f6dcde31e7a3483b4afe6e9dcc4f43684c015bb6778a865bbc6f8585856040518084600019166000191681526020018360ff1660ff1681526020018273ffffffffffffffffffffffffffffffffffffffff1673ffffffffffffffffffffffffffffffffffffffff168152602001935050505060405180910390a1600073ffffffffffffffffffffffffffffffffffffffff168260030160009054906101000a900473ffffffffffffffffffffffffffffffffffffffff1673ffffffffffffffffffffffffffffffffffffffff1614158015611be05750600073ffffffffffffffffffffffffffffffffffffffff168260040160009054906101000a900473ffffffffffffffffffffffffffffffffffffffff1673ffffffffffffffffffffffffffffffffffffffff1614155b8015611c3d5750600073ffffffffffffffffffffffffffffffffffffffff168260050160009054906101000a900473ffffffffffffffffffffffffffffffffffffffff1673ffffffffffffffffffffffffffffffffffffffff1614155b15611c9f5760018260070160006101000a81548160ff0219169083151502179055507fb74939dda3821810c4893bf929480636eec12ebb5fdcda90d39350ea324ec66f8560405180826000191660001916815260200191505060405180910390a15b5050505050565b600481815481101515611cb557fe5b9060005260206000209060040201600091509050806000018054600181600116156101000203166002900480601f016020809104026020016040519081016040528092919081815260200182805460018160011615610100020316600290048015611d615780601f10611d3657610100808354040283529160200191611d61565b820191906000526020600020905b815481529060010190602001808311611d4457829003601f168201915b5050505050908060010160009054906101000a900473ffffffffffffffffffffffffffffffffffffffff16908060020154908060030160009054906101000a900460ff16908060030160019054906101000a900460ff16905085565b600660205281600052604060002081600381101515611dd857fe5b6004020160009150915050806000018054600181600116156101000203166002900480601f016020809104026020016040519081016040528092919081815260200182805460018160011615610100020316600290048015611e7b5780601f10611e5057610100808354040283529160200191611e7b565b820191906000526020600020905b815481529060010190602001808311611e5e57829003601f168201915b5050505050908060010160009054906101000a900473ffffffffffffffffffffffffffffffffffffffff16908060020154908060030160009054906101000a900460ff16908060030160019054906101000a900460ff16905085565b600560205281600052604060002081815481101515611ef257fe5b906000526020600020906004020160009150915050806000018054600181600116156101000203166002900480601f016020809104026020016040519081016040528092919081815260200182805460018160011615610100020316600290048015611f9f5780601f10611f7457610100808354040283529160200191611f9f565b820191906000526020600020905b815481529060010190602001808311611f8257829003601f168201915b5050505050908060010160009054906101000a900473ffffffffffffffffffffffffffffffffffffffff16908060020154908060030160009054906101000a900460ff16908060030160019054906101000a900460ff16905085565b600080600080600080600060026000896000191660001916815260200190815260200160002090508060020160009054906101000a900473ffffffffffffffffffffffffffffffffffffffff168160030160009054906101000a900473ffffffffffffffffffffffffffffffffffffffff168260040160009054906101000a900473ffffffffffffffffffffffffffffffffffffffff168360050160009054906101000a900473ffffffffffffffffffffffffffffffffffffffff1684600601548560070160009054906101000a900460ff169650965096509650965096505091939550919395565b60008060026000846000191660001916815260200190815260200160002091508160020160009054906101000a900473ffffffffffffffffffffffffffffffffffffffff169050600015158260070160009054906101000a900460ff16151514801561217b57503373ffffffffffffffffffffffffffffffffffffffff168173ffffffffffffffffffffffffffffffffffffffff16145b151561218657600080fd5b60018260070160006101000a81548160ff0219169083151502179055507fb74939dda3821810c4893bf929480636eec12ebb5fdcda90d39350ea324ec66f8360405180826000191660001916815260200191505060405180910390a1505050565b6000600560008360001916600019168152602001908152602001600020805490509050919050565b600080600090505b60008054905081101561226357826000191660008281548110151561223857fe5b90600052602060002001546000191614156122565760019150612268565b8080600101915050612217565b600091505b50919050565b60008080549050905090565b6002602052806000526040600020600091509050806000018054600181600116156101000203166002900480601f0160208091040260200160405190810160405280929190818152602001828054600181600116156101000203166002900480156123265780601f106122fb57610100808354040283529160200191612326565b820191906000526020600020905b81548152906001019060200180831161230957829003601f168201915b5050505050908060010154908060020160009054906101000a900473ffffffffffffffffffffffffffffffffffffffff16908060030160009054906101000a900473ffffffffffffffffffffffffffffffffffffffff16908060040160009054906101000a900473ffffffffffffffffffffffffffffffffffffffff16908060050160009054906101000a900473ffffffffffffffffffffffffffffffffffffffff16908060060154908060070160009054906101000a900460ff16905088565b60016020528060005260406000206000915090508060000154908060010160009054906101000a900473ffffffffffffffffffffffffffffffffffffffff1690806002018054600181600116156101000203166002900480601f0160208091040260200160405190810160405280929190818152602001828054600181600116156101000203166002900480156124bf5780601f10612494576101008083540402835291602001916124bf565b820191906000526020600020905b8154815290600101906020018083116124a257829003601f168201915b505050505090806003018054600181600116156101000203166002900480601f01602080910402602001604051908101604052809291908181526020018280546001816001161561010002031660029004801561255d5780601f106125325761010080835404028352916020019161255d565b820191906000526020600020905b81548152906001019060200180831161254057829003601f168201915b5050505050908060040160009054906101000a900460ff16905085565b60a06040519081016040528060608152602001600073ffffffffffffffffffffffffffffffffffffffff16815260200160008019168152602001600060ff168152602001600060ff1681525090565b828054600181600116156101000203166002900490600052602060002090601f016020900481019282601f1061260a57805160ff1916838001178555612638565b82800160010185558215612638579182015b8281111561263757825182559160200191906001019061261c565b5b5090506126459190612737565b5090565b60a06040519081016040528060008019168152602001600073ffffffffffffffffffffffffffffffffffffffff16815260200160608152602001606081526020016000151581525090565b610100604051908101604052806060815260200160008019168152602001600073ffffffffffffffffffffffffffffffffffffffff168152602001600073ffffffffffffffffffffffffffffffffffffffff168152602001600073ffffffffffffffffffffffffffffffffffffffff168152602001600073ffffffffffffffffffffffffffffffffffffffff168152602001600081526020016000151581525090565b61275991905b8082111561275557600081600090555060010161273d565b5090565b905600a165627a7a72305820133cfe9c3d88048e248ac8abe05b0298c26bf8e4a041d2d6f2c3c7e1a2bbdf3e0029",
  "source": "pragma solidity ^0.4.24;\n\nimport \"openzeppelin-solidity/contracts/math/SafeMath.sol\";\n \n\ncontract TeamUp {\n    \n    //enum HackerRole {Leader, Designer, FrontEndDev, BackendDev}\n    uint8 constant leader_role = 1;\n    uint8 constant designer_role = 2;\n    uint8 constant frontenddev_role = 3;\n    uint8 constant backenddev_role = 4;\n    string constant event_name = \"ETHSF\";\n\n    struct Idea {\n        bytes32 ideaId;\n        address leader;\n        string industry; \n        string tagline;\n        \n\n        bool isIdea; //for checking purpose in mapping\n    }\n\n    struct HackathonTeam {\n        string hackathonName;\n        bytes32 ideaId;\n\n        address leader;\n        address designer;\n        address frontend_dev;\n        address backend_dev;\n        uint    partipants_votes;\n        bool    isOfficial;\n    }\n\n    struct HackerIdeaVote {\n        string hackathonName;\n        address hacker;\n\n        //as hacker ,i will vote 1st option for this idea with this role. \n        bytes32 ideaId;\n        uint8   role;\n        uint8   priority;\n    }\n\n    /******************************************************************************** */\n\n    bytes32[] public IdeaCodes;\n    mapping(bytes32 => Idea) public Ideas;\n    mapping(bytes32 => HackathonTeam) public Teams;\n    address[] voters;\n\n    HackerIdeaVote[] public Votes;\n    mapping(bytes32 => HackerIdeaVote[]) public IdeaVotes;     //idea hash --> votes.\n    mapping(address => HackerIdeaVote[3]) public HackerVotes; //hacker--> votes.\n\n    //**All events\n    event IdeaPosted(bytes32 ideaId, address leader);\n    event HackerVoteUpdated(address hacker, bytes32 ideaId, uint8 role, uint priority, string message);\n    event HackerPicked(bytes32 ideaId, uint8 role, address hackerAddress);\n    event TeamFormed(bytes32 ideaId);\n\n\n    /******************************************************************************** */\n\n    function getIdeaTeam(bytes32 ideaId) public view returns (address, address, address, address, uint, bool) {\n        HackathonTeam team = Teams[ideaId];\n        return (team.leader, team.designer, team.frontend_dev, team.backend_dev, team.partipants_votes, team.isOfficial);\n    }\n    \n    function getVotesLength() public view returns (uint) {\n        return Votes.length;\n    }\n\n    function getIdeaVotesCount(bytes32 ideaId) public view returns (uint) {\n        return IdeaVotes[ideaId].length;\n    }\n\n    function getIdeaCodes() public view returns (bytes32[]) {\n        return IdeaCodes;\n    }\n\n    function getIdeasLength() public view returns (uint) {\n        return IdeaCodes.length;\n    }\n\n    function hasIdeaPosted(bytes32 ideaId) public view returns (bool) {\n        for (uint i = 0; i < IdeaCodes.length; i++) {\n            if (IdeaCodes[i] == ideaId) {\n                return true; \n            }\n        }\n\n        return false;\n    }\n\n    /******************************************************************************** */\n\n    /** Step 1 - post idea into blockchain and return a hash. \n     ** at the same time, team is initialized. \n     ** idea initiator is a default team leader\n     */\n    function postIdea(string industry, string tagline) external returns (bytes32) {\n        //register idea\n        bytes32 ideaId = keccak256(abi.encodePacked(industry, tagline));\n\n        bool exists = hasIdeaPosted(ideaId);\n        if (exists == true) {\n            return ideaId;\n        }\n\n        Idea memory idea = Idea(ideaId, msg.sender, industry, tagline, false);\n        //Ideas[Ideas.length] = idea;\n        IdeaCodes.push(ideaId);\n        Ideas[ideaId] = idea;\n\n        //register hackathon team\n        HackathonTeam memory team = HackathonTeam(event_name, ideaId, msg.sender, 0x0, 0x0, 0x0, 0, false);\n        Teams[ideaId] = team;\n\n        //create event\n        emit IdeaPosted(ideaId, msg.sender);\n\n        return ideaId;\n    }\n\n    /******************************************************************************** */\n\n    /** Step 2 - hackers except leader to vote 3 priority cards for idea and role. \n     ** All votes are tracked. \n     ** Idea votes are tracked. \n     ** Hacker votes are tracked. \n     ** Every hacker can have at most 3 cards. They can also change decisions. \n     */\n    function hackerToVote(bytes32 ideaId, uint8 role, uint priority) external {\n        //cannot vote on leader role. \n        require(role != leader_role);\n        require(priority >= 1 && priority <= 3);\n\n        //always increment participants for that team and idea campaign. \n        HackathonTeam storage team = Teams[ideaId];\n        //team.partipants_votes++;    --Bug, cannot be here. over count.             \n\n        //look up for the same priority. \n        HackerIdeaVote storage oldVote = HackerVotes[msg.sender][priority-1];\n\n        //new case for this priority\n        if (oldVote.priority == 0) {\n            HackerIdeaVote memory vote = HackerIdeaVote(event_name, msg.sender, ideaId, role, uint8(priority));\n            \n            Votes.push(vote);       \n            IdeaVotes[ideaId].push(vote);           \n            HackerVotes[msg.sender][priority-1] = vote;          \n            team.partipants_votes++;\n\n            emit HackerVoteUpdated(msg.sender, ideaId, role, priority, \"new vote is added. \");\n     \n        } else {\n            //existed, but either idea or role change, we will update. \n            if (oldVote.ideaId != ideaId) {\n                oldVote.ideaId = ideaId;\n                team.partipants_votes++;\n\n                emit HackerVoteUpdated(msg.sender, ideaId, role, priority, \"voting on different idea now. \");\n       \n            } else if (oldVote.role != role) {\n                oldVote.role = role;\n                team.partipants_votes++;\n                emit HackerVoteUpdated(msg.sender, ideaId, role, priority, \"role is changed for the saem vote. \");\n            } else {\n                emit HackerVoteUpdated(msg.sender, ideaId, role, priority, \"no vote is updated. \");\n            }\n        }\n    }\n\n    /******************************************************************************** */\n\n    /** Step 3 - Now, it is leader to pick hacker(s) out of voters. \n     ** Leader doesn't have to all decisions, but high suggest make progressive suggestion. \n     */\n    function leaderToPick(bytes32 ideaId, uint8 role, address hackerAddress) external {\n        //make sure caller is the leader for his team decison.\n        HackathonTeam storage team = Teams[ideaId];\n        address leaderAddress = team.leader;\n        require(leaderAddress == msg.sender);\n\n        if (role == designer_role) {\n            team.designer = hackerAddress;\n        } else if (role == frontenddev_role) {\n            team.frontend_dev = hackerAddress;\n        } else if (role == backenddev_role) {\n            team.backend_dev = hackerAddress;\n        } \n\n        emit HackerPicked(ideaId, role, hackerAddress);\n\n        //always check whether all team members are picked or not. \n        if (team.designer != address(0x0) && team.frontend_dev != address(0x0) && team.backend_dev != address(0x0)) {\n            team.isOfficial = true;\n            emit TeamFormed(ideaId);\n        }\n    }\n\n    /******************************************************************************** */\n\n    /** Step 4 - The leader has the right to force to finalize a team even it is not fullly settled. \n     */\n    function forceToFinalize(bytes32 ideaId) external {\n        HackathonTeam storage team = Teams[ideaId];\n        address leaderAddress = team.leader;\n        //must be leader and team is not finalized beefore .\n        require(team.isOfficial == false && leaderAddress == msg.sender);\n\n        team.isOfficial = true;\n        emit TeamFormed(ideaId);\n    }\n}",
  "sourcePath": "/Users/vivi/Documents/Programming/learning/ethereum/Hackathon-TeamUp/contracts/TeamUp.sol",
  "compiler": {
    "name": "solc",
    "version": "0.4.24+commit.e67f0147.Emscripten.clang"
  },
  "schemaVersion": "2.0.1",
  "updatedAt": "2018-10-07T09:29:26.390Z"
}